:020000040800F2
:10000000D81F0020010100085D3A00087D2D00087E
:10001000593A0008F9020008156C000800000000B9
:10002000000000000000000000000000C7440008BD
:10003000C5030008000000002143000851470008E4
:100040001B0100081B0100081B0100081B01000820
:100050001B0100081B0100081B0100081B01000810
:100060001B0100081B0100081B0100081B01000800
:100070001B0100081B0100081B0100081B010008F0
:100080001B0100081B0100081B0100081B010008E0
:10009000516A00081B0100081B0100081B01000831
:1000A0001B0100081B0100081B0100081B010008C0
:1000B00099480008D94800081B0100081B010008E6
:1000C0001B0100081B0100081B0100081B010008A0
:1000D0001B010008814D00081B010008914D00081C
:1000E0001B0100081B0100081B010008DFF80CD0F1
:1000F00000F05AF80048004715700008D81F00208B
:100100000648804706480047FEE7FEE7FEE7FEE7B1
:10011000FEE7FEE7FEE7FEE7FEE7FEE741480008F0
:10012000ED000008202A04DB203A21FA02F0002129
:10013000704721FA02F3D040C2F1200291400843F7
:100140001946704740EA01039B0703D009E008C93C
:10015000121F08C0042AFAD203E011F8013B00F88C
:10016000013B521EF9D27047D2B201E000F8012BD8
:10017000491EFBD270470022F6E710B513460A4627
:1001800004461946FFF7F0FF204610BD30B504467F
:100190000020034600E05B1C934203D2E05CCD5C90
:1001A000401BF8D030BD0000064C074D06E0E0686B
:1001B00040F0010394E8070098471034AC42F6D3AE
:1001C000FFF798FF147300083473000870B58C189B
:1001D00010F8015B15F0070301D110F8013B2A115B
:1001E00006D110F8012B03E010F8016B01F8016B48
:1001F0005B1EF9D12B0705D40023521E0DD401F844
:10020000013BFAE710F8013BCB1A921C03E013F80C
:10021000015B01F8015B521EF9D5A142D8D3002041
:1002200070BD70B5044600252068806800F00100AC
:10023000F0B12068806820F001002168886000F03B
:100240009BFF05460EE000F097FF401B022809D9EE
:10025000A06A40F01000A062E06A40F00100E06295
:10026000012070BD2068806800F001000028EAD1FC
:100270000020F6E738B504460025002000902068ED
:10028000806800F0010080BB2068806840F00100B9
:1002900021688860164800681649B0FBF1F00090AC
:1002A00002E00098401E009000980028F9D100F06C
:1002B00063FF054613E000F05FFF401B02280ED9E4
:1002C000A06A40F01000A062E06A40F00100E06225
:1002D00000BF002084F8240000BF012038BD206842
:1002E000806800F001000028E5D00020F6E700005B
:1002F000C400002040420F0000BFFEE70346042B6D
:1003000015D007DC7BB1012B0ED0022B0DD0032BB7
:1003100012D10BE0202B0BD0212B0AD0222B09D09D
:10032000232B09D107E008E007E006E005E004E040
:1003300003E002E001E000E000BF00BF00207047E2
:100340000020704710B500220449054804F098FECB
:100350000449034804F08DFE002010BD6C170020F6
:10036000E00800208413002070B504460D462146A5
:10037000054804F07EFE044804F057FE204606F0CF
:100380005FFC002070BD0000E00800202DE9F04176
:1003900004460D4600260A48D0F81872D7F8140211
:1003A00010B10120BDE8F0812A462146044804F03E
:1003B00067FE034804F0B6FE06463046F2E700004A
:1003C000E0080020704700000021074AD16107497A
:1003D000096941F00401054A11611146096941F0BA
:1003E0004001116170470000B81B0020002002404E
:1003F0000021074AD1610749096941F00201054A14
:10040000116111464861096941F04001116170476D
:10041000B81B0020002002400022054BDA61054A8B
:10042000126942F00102034B1A610180704700001B
:10043000B81B00200020024000201E49C96801F0BE
:10044000100139B11C49C96941F002011A4AD16150
:1004500040F010001749C96801F0040139B116498C
:10046000C96941F00101144AD16140F00400114909
:10047000C96901F0010169B10F49C96941F004017D
:100480000D4AD16100BF0B49C96921F00101094A38
:10049000D16100BF00BF40F20111884206D1054979
:1004A000C96921F00101034AD16101E00149C86035
:1004B00000BF704700200240B81B002070B5044602
:1004C00000F05AFE054609E0601C38B124B100F086
:1004D00053FE401BA04201D9032070BD1248C068E2
:1004E00000F001000028EFD10F48C06800F02000A4
:1004F00020B100BF20200C49C86000BF0A48C06876
:1005000000F0100048B90848C06900F0010020B9A7
:100510000548C06800F0040018B1FFF78DFF012006
:10052000DBE70020D9E700000020024010B586B0CC
:10053000002400200290064804900120059001A9A3
:1005400002A800F0A9FB00B90124204606B010BDA6
:1005500000FC01082DE9F0439FB007468946154687
:100560001E466422164906A8FFF7ECFD06A9C81925
:100570002A464946FFF7E6FD0DF1180800F046FC53
:10058000002002900E480490012005900020019068
:1005900001A902A800F080FB00240AE038F802CB91
:1005A000074800EB440162460023012000F0D6FB1F
:1005B000641C642CF2DB00F0C7FB1FB0BDE8F083C5
:1005C00000F00108F0B50446059D0020661AAF1A38
:1005D0007E435F1AB6FBF7F61644B0B2F0BD0000DA
:1005E00038B5024600230020009000BF92F8240096
:1005F000012801D1022038BD012082F8240000BF6B
:100600004868072812D21068406B0C79641E04EB0E
:1006100084051F24AC40A0430D796D1E05EB8505B4
:100620000C68AC4020431468606327E048680D28DC
:1006300012D21068006B0C79E41F04EB84051F24B0
:10064000AC40A0430D79ED1F05EB85050C68AC406F
:1006500020431468206311E01068C06A0C790D3CD7
:1006600004EB84051F24AC40A0430D790D3D05EB40
:1006700085050C68AC4020431468E06208680A28CD
:1006800012D31068C0680C780A3C04EB44050724B8
:10069000AC40A0430D780A3D05EB45058C68AC40A5
:1006A00020431468E0600FE0106800690C7804EBE8
:1006B00044050724AC40A0430D7805EB45058C6844
:1006C000AC402043146820610868102802D00868F4
:1006D000112827D1174C1068A0421ED110688068DD
:1006E00000F40000F0B91068806840F4000014685D
:1006F000A0600868102815D10F4800680F4CB0FBA7
:10070000F4F000EB80004000009002E00098401EF2
:10071000009000980028F9D104E0906A40F0200091
:100720009062012300BF002082F8240000BF184619
:1007300061E7000000240140C400002040420F0097
:1007400001460868C06C70472DE9F0410446002757
:1007500000250026A84614B90120BDE8F081A06854
:1007600010B1606900B100BFA06A30B90020E0623A
:1007700084F82400204600F089F82046FFF751FD58
:100780000746A06A00F01000002873D1002F71D135
:10079000A06A20F4885040F00200A062E16960681D
:1007A0000843E16840EA41000643A068B0F5807F55
:1007B00002D0A068012802D14FF4807000E0002030
:1007C00005436069012811D1E06838B9A069401E6D
:1007D0004FF4006141EA4030054307E0A06A40F071
:1007E0002000A062E06A40F00100E06220684068FA
:1007F00020F46940284321684860206880682149C6
:100800000840304321688860A068B0F5807F02D03E
:10081000A068012802D14FF4807000E00020B0F5FC
:10082000807F03D1208A401E4FEA00582068C06AAA
:1008300020F4700040EA08002168C86220688068DF
:1008400011490840B04208D10020E062A06A20F0BF
:10085000020040F00100A06211E0A06A20F0020056
:1008600040F01000A062E06A40F00100E062012761
:1008700005E0FFE7A06A40F01000A06201273846BB
:100880006BE70000FDF7E1FFFE0E1FFF10B586B01D
:1008900004461149206888421CD100BF0F48806976
:1008A00040F400700D4988610846806900F40070CA
:1008B000019000BF00BF9E2002900320039002A978
:1008C000074800F0B9FA03200290039002A90548F6
:1008D00000F0B2FA06B010BD002401400010024042
:1008E00000080140000C0140F8B504460D46002602
:1008F00000200090002700F03FFC0646206880683A
:1009000000F4807050B1A06A40F02000A06200BFE7
:10091000002084F8240000BF0120F8BD2068406852
:1009200000F48070F8B92068C06A00F47000D0B993
:1009300012E0681C80B125B100F01EFC801BA842AB
:100940000AD9A06A40F00400A06200BF002084F829
:10095000240000BF0320E0E72068006800F00200E8
:100960000028E6D050E0022001F038F83649096846
:10097000B1FBF0F021680969344A114091B921684E
:10098000C9689211114069B921680969304A11405A
:1009900031B92168C9689211114009B9142117E0D1
:1009A000292115E021680969294A114021B92168E6
:1009B000C9689211114041B121680969254A114065
:1009C00029B92168C968114009B9542100E0FC2106
:1009D00000FB01F715E0681C80B125B100F0CCFBED
:1009E000801BA8420AD9A06A40F00400A06200BFA0
:1009F000002084F8240000BF03208EE70098401CEC
:100A000000900098B842E6D36FF0120021680860A9
:100A1000A06A40F40070A0622068806800F4602042
:100A2000B0F5602F0DD1E06858B9A06A20F480704D
:100A3000A062A06A00F4805018B9A06A40F00100DA
:100A4000A062002069E70000C4000020244992242D
:100A5000922449124992240070B50446002500BF33
:100A600094F82400012801D1022070BD012084F8EF
:100A7000240000BF2046FFF7FDFB0546002D77D17F
:100A8000A06A40F20121884340F48070A0623C4992
:100A90002068884208D13B48006800F4702008B9FB
:100AA000012002E0002000E0012078B1A06A20F4DB
:100AB0008010A0622068406800F4806000B3A06AE3
:100AC00020F4005040F48050A06219E0A06A40F485
:100AD0008010A0622B49091F2068884203D0284952
:100AE0002068884204D12748006800F4806000E054
:100AF000002028B1A06A20F4005040F48050A06289
:100B0000A06A00F4805020B1E06A20F00600E062A4
:100B100001E00020E06200BF002084F8240000BF54
:100B2000C01E216808602068806800F46020B0F56D
:100B3000602F16D112492068884208D111480068F8
:100B400000F4702008B9012002E0002000E001203C
:100B500038B12068806840F4A000216888600CE00B
:100B600006E02068806840F480102168886004E016
:100B700000BF002084F8240000BF284675E700006D
:100B8000002801400424014070B50446002500BF40
:100B900094F82400012801D1022070BD012084F8BE
:100BA000240000BF2046FFF73CFB05462DB9A06A94
:100BB00020F4885040F00100A06200BF002084F8BB
:100BC000240000BF2846E8E770B50446002594F8E5
:100BD0002100022803D00420A063012548E02068FA
:100BE000006820F00E00216808602068006820F08E
:100BF0000100216808601F492068884201D1012056
:100C000026E01C4914312068884201D110201FE0E1
:100C1000184928312068884201D1801518E015490B
:100C20003C312068884201D1801411E011495031D3
:100C30002068884202D14FF4803009E00D496431C8
:100C40002068884202D14FF4801001E04FF080709C
:100C5000084908394860012084F8210000BF0020BD
:100C600084F8200000BF606B10B12046616B88479C
:100C7000284670BD0800024031B500F07DFA0546F7
:100C8000009C601C00B1641C00BF00F075FA401BA2
:100C9000A042FAD338BD00002DE9F04104460E46CB
:100CA0000127002500BF2648007E012802D102202E
:100CB000BDE8F08101202249087600BF20680228A3
:100CC00013D14CF25030FFF7F9FB90BB0120FFF736
:100CD0007BFB4CF25030FFF7F1FB074619480069E7
:100CE00020F004001749086123E04CF25030FFF770
:100CF000E5FBF0B94FF0FF303060A56812E0284600
:100D0000FFF776FB4CF25030FFF7D8FB07460D4853
:100D1000006920F002000B4908610FB1356007E05F
:100D200005F58065D4E9021001EB8020A842E6D8E1
:100D300000BF00BF00200249087600BF3846B7E771
:100D4000B81B0020002002400348006940F08000EA
:100D50000149086100207047002002402DE9FE4F44
:100D600005468B461746984601260024002002902F
:100D700000BF2448007E012802D10220BDE8FE8F7A
:100D800001202049087600BF4CF25030FFF796FB57
:100D9000064686BB012D02D10120029006E0022DFD
:100DA00002D10220029001E00420029000241EE003
:100DB0002201B946C24648465146FFF7B3F980B210
:100DC0000190022000FB04B000900199FFF724FB82
:100DD0004CF25030FFF772FB06460B48006920F0DA
:100DE00001000949086106B104E0601CC4B2029820
:100DF0008442DDDB00BF00BF00200249087600BF4F
:100E00003046BBE7B81B00200020024007480069BD
:100E100000F0800028B10648044948600548486051
:100E200001E0012070470020FCE7000000200240A4
:100E300023016745AB89EFCD2DE9F8470346002430
:100E4000002000258446002700226EE14FF00108B3
:100E500008FA02F4D1F8008008EA0400A0427DD12B
:100E6000DFF8D0A2D1F80480A8EB0A09D0453AD027
:100E700014DCB8F1030F50D009DCB8F1000F31D009
:100E8000B8F1010F1CD0B8F1020F49D120E0B8F140
:100E9000110F18D0B8F1120F42D11EE0B9F5881F1A
:100EA00025D006DCB9F5803F20D0B9F5801F37D1B9
:100EB0001AE0B9F5001F18D0B9F5041F30D117E0BA
:100EC000D1F80CC02DE0D1F80C8008F1040C28E01A
:100ED000D1F80C8008F1080C23E0D1F80C8008F15F
:100EE0000C0C1EE000BF00BF00BF00BF00BF00BF72
:100EF000D1F80880B8F1000F02D14FF0040C0BE0DC
:100F0000D1F80880B8F1010F03D14FF0080C1C6133
:100F100002E04FF0080C5C6103E04FF0000C00E0D1
:100F200000BF00BFFF2801D8984601E003F1040884
:100F30004646FF2802D84FEA820803E0A2F10808DB
:100F40004FEA88084746D6F800804FF00F0909FAA3
:100F500007F928EA09080CFA07F900E088E048EAEE
:100F60000908C6F80080D1F8048008F08058B8F16C
:100F7000805F7DD100BFDFF8C081D8F8188048F0CD
:100F80000108DFF8B491C9F81880C846D8F818806D
:100F900008F00108CDF8008000BF00BF4FEAB93863
:100FA0004FEA920958F829504FEA82784FEA1879A7
:100FB0004FF00F0808FA09F825EA0805DFF87C81E8
:100FC000434502D14FF0000816E0DFF87481434535
:100FD00002D14FF001080FE0DFF86881434502D1EC
:100FE0004FF0020808E0DFF86081434502D14FF07E
:100FF000030801E04FF004084FEA82794FEA1979BB
:1010000008FA09F848EA0505DFF840814FEA920935
:1010100048F82950D1F8048008F48038B8F5803FAA
:101020000AD1DFF82C81D8F8008048EA0008DFF800
:101030002091C9F8008009E0DFF81481D8F8008019
:1010400028EA0008DFF80891C9F80080D1F8048088
:1010500008F40038B8F5003F10D1DFF8F48008F14B
:101060000408D8F8008048EA0008DFF8E49000E0BF
:101070005AE009F10409C9F800800DE0DFF8D080DA
:1010800008F10408D8F8008028EA0008DFF8C090CA
:1010900009F10409C9F80080D1F8048008F4801827
:1010A000B8F5801F0ED1DFF8A88008F10808D8F83D
:1010B000008048EA0008DFF8989009F10809C9F8AB
:1010C00000800DE0DFF8888008F10808D8F800807B
:1010D00028EA0008DFF8789009F10809C9F80080CB
:1010E000D1F8048008F40018B8F5001F0ED1DFF81D
:1010F000608008F10C08D8F8008048EA0008DFF8A2
:10110000509009F10C09C9F800800DE0DFF840802B
:1011100008F10C08D8F8008028EA0008DFF83090C1
:1011200009F10C09C9F80080521C102AFFF48EAE98
:10113000BDE8F887000011100010024000080140CF
:10114000000C014000100140001401400800014063
:1011500000040140024693680B400BB1012000E0FF
:1011600000207047C2684A40C26070470AB10161FE
:1011700001E00B04036170470148006870470000FC
:10118000C800002002480068401C01490860704700
:10119000C800002010B50848006840F0100006495B
:1011A0000860032000F0C2F8002000F007F800F00B
:1011B00019F8002010BD00000020024070B5044660
:1011C000074800684FF47A71B0FBF1F5284601F04A
:1011D0002BFA00222146501E00F069F8002070BD55
:1011E000C400002008B500BF2848806940F0010015
:1011F000264988610846806900F00100009000BF20
:1012000000BF00BF0846C06940F08050C861084672
:10121000C06900F08050009000BF00BF052000F0C2
:1012200085F8002211466FF00B0000F040F8002214
:1012300011466FF00A0000F03AF8002211466FF0F4
:10124000090000F034F800221146501F00F02FF87A
:1012500000221146101F00F02AF800221146901EAD
:1012600000F025F800221146501E00F020F800BFC3
:101270000748406820F0E06005494860084640683B
:1012800040F00070486000BF08BD00000010024040
:101290000000014000BF00F01F02012191404209FF
:1012A000920002F1E022C2F8001100BF70472DE960
:1012B000F05F80460D461646002702F0F3FD074614
:1012C00039462A46334601F00700C0F1070ABAF151
:1012D000040F02D94FF0040A01E0C0F1070AD14619
:1012E00000F1040ABAF1070F02D24FF0000A01E040
:1012F000A0F1030AD4464FF0010A0AFA09FAAAF14A
:10130000010A0AEA020A0AFA0CFA4FF0010B0BFA78
:101310000CFBABF1010B0BEA030B4AEA0B04214671
:10132000404602F0C7FDBDE8F09F000000BF00F09E
:101330000702064B19684FF6FF031940044B0B4395
:1013400043EA0221014B196000BF70470CED00E039
:101350000000FA0570B505460C46002104F0800037
:10136000802806D104F07F0605F1280000EB461125
:1013700003E005F50A7000EB44111AB900208872E9
:101380008B8004E001208872CB80180C088100203B
:1013900070BD704770B504460D4604F1280101EB9D
:1013A00045114A692946D4F85C0404F07DF970BD02
:1013B00070B504460D4604F50A7101EB45114A6902
:1013C0002946D4F85C0404F0DCF970BD70B504461D
:1013D0000D46002605F08000802806D105F07F012B
:1013E00004F1280000EB411605E005F07F0104F54B
:1013F0000A7000EB411605F07F00307005F08000A8
:10140000C009707000BF94F82804012801D102209F
:1014100070BD012084F8280400BF3146206804F024
:10142000A8FF00BF002084F8280400BF00BFEFE73A
:1014300070B504460D46002605F08000802806D1D0
:1014400005F07F0104F1280000EB411603E004F5EC
:101450000A7000EB45160020B07005F07F00307078
:10146000C5F3C010707000BF94F82804012801D1A2
:10147000022070BD012084F8280400BF3146206896
:1014800005F0A4F800BF002084F8280400BF00BFC6
:10149000EFE7024601F00F0302F50A7000EB43107C
:1014A000808B80B270472DE9F04704460D46174601
:1014B00098464FF00009002605F08000802806D1EC
:1014C00005F07F0104F1280000EB411605E005F06E
:1014D0007F0104F50A7000EB411605F07F003070C3
:1014E00005F08000C0097070376186F8038000BF86
:1014F00094F82804012802D10220BDE8F0870120D9
:1015000084F8280400BF3146206804F059FD00BF6C
:10151000002084F8280400BF4846EEE72DE9F0419A
:1015200005460E4617469846002406F07F0105F54D
:101530000A7000EB41146761C4F818800020E06174
:10154000607006F07F00207006F07F0020B9214611
:10155000286805F0D8F803E02146286805F0D3F89C
:101560000020BDE8F08170B504460D46002605F068
:101570008000802806D105F07F0104F1280000EBEF
:10158000411603E004F50A7000EB45160120B07027
:1015900005F07F003070C5F3C010707000BF94F884
:1015A0002804012801D1022070BD012084F82804FC
:1015B00000BF3146206805F063F805F07F0020B9D0
:1015C00004F22C41206804F0FEFF00BF002084F8E4
:1015D000280400BF00BFE7E72DE9F04105460E46AD
:1015E00017469846002406F07F0105F1280000EB1D
:1015F00041146761C4F818800020E0610120607028
:1016000006F07F00207006F07F0020B92146286890
:1016100005F079F803E02146286805F074F8002009
:10162000BDE8F08110B50446206805F019FA00F411
:101630000040B0F5004F02D1204602F04FFC206878
:1016400005F00EFA00F48060B0F5806F0ED12068CE
:10165000B0F8440020F480602168A1F844002046DE
:1016600000F044F90021204600F063F9206805F0FD
:10167000F7F900F48040B0F5804F07D12068B0F84A
:10168000440020F480402168A1F84400206805F05F
:10169000E7F900F40050B0F5005F07D12068B0F81A
:1016A000440020F400502168A1F84400206805F0AF
:1016B000D7F900F48050B0F5805F1AD12068B0F8F7
:1016C000400020F004002168A1F840002068B0F834
:1016D000400020F008002168A1F84000204600F0FA
:1016E0001AF92068B0F8440020F480502168A1F86D
:1016F0004400206805F0B4F900F40060B0F5006F14
:1017000020D12068B0F8400040F008002168A1F81E
:1017100040002068B0F8440020F400602168A1F87F
:1017200044002068B0F8400040F004002168A1F8AF
:101730004000206805F094F9C0F3003010B920464D
:1017400000F03AF9206805F08BF900F40070B0F56C
:10175000007F0AD12068B0F8440020F400702168AE
:10176000A1F84400204600F0DDF8206805F078F983
:1017700000F48070B0F5807F07D12068B0F8440095
:1017800020F480702168A1F8440010BD30B585B008
:101790000446002514B9012005B030BD94F8290491
:1017A00028B9002084F82804204600F07DF80320A2
:1017B00084F82904206804F0FBFE142204F11001CF
:1017C0006846FEF7BFFC94E80F0004F0CEFD002150
:1017D000206805F05EF9002525E0012104F12800CC
:1017E00000EB4510417004F1280000EB4510057036
:1017F00004F1280000EB45108581002104F1280048
:1018000000EB4510C17004F1280000EB45100161A8
:1018100004F1280000EB4510416104F1280000EBC1
:10182000451081616D1C0F2DD7D3002524E00021C8
:1018300004F50A7000EB4510417004F50A7000EBE6
:101840004510057004F1280000EB4510858104F572
:101850000A7000EB4510C17004F50A7000EB4510EA
:10186000016104F50A7000EB4510416104F50A704E
:1018700000EB451081616D1C0F2DD8D3142204F1AB
:1018800010016846FEF75EFC94E80F0004F081FE4C
:10189000002084F82400012084F82904206804F042
:1018A00075FE002078E7000038B504460D49206831
:1018B000884215D100BF0C48C06940F400000A49B5
:1018C000C8610846C06900F40000009000BF00BF76
:1018D000002211461420FFF7EAFC1420FFF7DAFC7F
:1018E00038BD0000005C00400010024070B50446A6
:1018F0000125A068022801D100BF01E0012500BF39
:1019000000BF2946D4F85C0404F08EF8D4F85C04D7
:1019100004F050F870BD10B50446D4F85C0404F02F
:101920006BF810BD10B50446D4F85C0404F06BF8F5
:1019300010BD70B504460D4600BF94F82804012878
:1019400001D1022070BD012084F8280400BF84F872
:1019500024502946206805F09FF800BF002084F835
:10196000280400BF00BFEDE710B5044604F22C4187
:10197000D4F85C0404F07EF810BD10B5044600BF36
:1019800094F82804012801D1022010BD012084F818
:10199000280400BF01212046FFF7FBFC206804F06B
:1019A000F2FD206805F048F800BF002084F8280404
:1019B00000BF00BFE9E7000010B50446D4F85C049E
:1019C00004F0CFF8A06928B10348006840F0060091
:1019D0000149086010BD000010ED00E02DE9F04362
:1019E00085B006463DA30FCB01AC0FC43FA00068F5
:1019F00000904FF00008002500270024A146012E8A
:101A000030D0022E58D0102E61D139484468006879
:101A100000F0807000B301A8C4F38341475C04F474
:101A2000803070B132484068C0F340401DF80080FB
:101A300004F4803040B12F48B0FBF8F000FB07F50C
:101A400002E02D4807FB00F52948406800F48000BB
:101A5000B0F5800F01D1A94603E068000321B0FB77
:101A6000F1F935E02248046A04F44070B0F5807F53
:101A700005D104F0020010B14FF400491BE004F45A
:101A80004070B0F5007F07D11948406A00F00200AD
:101A900010B149F640490EE004F44070B0F5407FC3
:101AA00007D11348006800F4003010B14FF2244908
:101AB00001E04FF000090BE000F0A0F90C49496883
:101AC000C1F38131491C4900B0FBF1F900E000BFCE
:101AD00000BF484605B0BDE8F083000002030405DE
:101AE000060708090A0B0C0D0E0F1010010200006A
:101AF0000010024000127A0000093D00F8B50446CB
:101B000000260025207800F0010000286BD0002777
:101B10004348C06900F0805070B900BF4048C069B8
:101B200040F080503E49C8610846C06900F08050CE
:101B3000009000BF00BF01273A48006800F48070A1
:101B4000B0B93848006840F4807036490860FFF743
:101B500013FB064606E0FFF70FFB801B642801D944
:101B60000320F8BD2F48006800F480700028F2D0F0
:101B70002B48006A00F440752DB3A08800F4407033
:101B8000A84220D02648006A20F44075012026494A
:101B90000860002008602248056205F0010090B14D
:101BA000FFF7EAFA064608E0FFF7E6FA801B41F283
:101BB0008831884201D90320D3E71948006A00F030
:101BC00002000028F0D01648006A20F440706168D6
:101BD000084313490862012F04D10846C06920F068
:101BE0008050C86100BF207800F00200022807D1B1
:101BF0000B48406820F44040A16808430849486009
:101C0000207800F01000102807D10548406820F423
:101C10008000E1680843024948600020A1E7000015
:101C200000100240007000404004424270B504467B
:101C30000D4600266248006800F00700A8420ED258
:101C40005F48006820F0070028435D4908600846A7
:101C5000006800F00700A84201D0012070BD207884
:101C600000F00200022807D15648406820F0F0003A
:101C7000A168084353494860207800F0010000281B
:101C80005DD06068012806D14E48006800F400303D
:101C900090B90120E2E76068022806D1494800684F
:101CA00000F0007040B90120D8E74648006800F015
:101CB000020008B90120D1E74248406820F0030043
:101CC000616808433F494860FFF756FA0646606876
:101CD000012810D108E0FFF74FFA801B41F288314C
:101CE000884201D90320B9E73648406800F00C006B
:101CF0000428F0D123E06068022810D108E0FFF743
:101D00003BFA801B41F28831884201D90320A5E7C4
:101D10002C48406800F00C000828F0D10FE008E0E3
:101D2000FFF72AFA801B41F28831884201D903204B
:101D300094E72448406800F00C000028F0D12048C7
:101D4000006800F00700A8420ED91D48006820F086
:101D5000070028431A4908600846006800F0070099
:101D6000A84201D0012079E7207800F0040004287F
:101D700007D11448406820F4E060E1680843114945
:101D80004860207800F00800082808D10D48406815
:101D900020F46050216940EAC1000A49486000F01F
:101DA0003DF808494968C1F30311074A515CC8402E
:101DB000064908600020FFF701FA00204EE7000006
:101DC0000020024000100240FA720008C400002007
:101DD0000148006870470000C400002000B5FFF70C
:101DE000F7FF04494968C1F30221034A515CC84026
:101DF00000BD0000001002400A73000800B5FFF7A4
:101E0000E7FF04494968C1F3C221034A515CC84055
:101E100000BD0000001002400A730008F0B585B054
:101E20000FF2700C9CE8E01001A8A0E8E0101DA5DE
:101E30002D680095002100240022002300201A4D67
:101E4000696801F00C05FDB1042D02D0082D1AD1EE
:101E500001E016481AE001ADC1F38346AB5D01F421
:101E600080355DB1104D6D68C5F340451DF80540E6
:101E70000E4DB5FBF4F505FB03F202E00C4D03FB40
:101E800005F2104602E000BF084800BF00BF05B0E1
:101E9000F0BD000002030405060708090A0B0C0D3B
:101EA0000E0F1010010200000010024000127A0014
:101EB00000093D00F8B504460025207800F0010037
:101EC000002878D0F848406800F00C0004280CD0B6
:101ED000F548406800F00C00082811D1F24840682D
:101EE00000F48030B0F5803F0AD1EF48006800F47C
:101EF000003000285FD0606800285CD10120F8BD68
:101F000000BF6068B0F5803F06D1E748006840F444
:101F10008030E549086028E0606858B9E248006808
:101F200020F48030E04908600846006820F48020F2
:101F300008601AE06068B0F5A02F0BD1DA4800689D
:101F400040F48020D84908600846006840F480309A
:101F500008600AE0D448006820F48030D249086064
:101F60000846006820F48020086000BF606888B1DF
:101F7000FFF702F9054606E0FFF7FEF8401B64286C
:101F800001D90320BBE7C848006800F400300028EE
:101F9000F2D010E0FFF7F0F8054606E0FFF7ECF8A6
:101FA000401B642801D90320A9E7BF48006800F45A
:101FB00000300028F2D1207800F00200022857D12A
:101FC000B948406800F00C0050B1B748406800F0D4
:101FD0000C00082818D1B448406800F4803098B943
:101FE000B148006800F0020020B12069012801D04A
:101FF000012084E7AC48006820F0F800616940EAFD
:10200000C100A949086033E02069E8B10120A7496F
:102010000860FFF7B1F8054606E0FFF7ADF8401B92
:10202000022801D903206AE79F48006800F00200F7
:102030000028F2D09C48006820F0F800616940EA6E
:10204000C1009949086013E0002098490860FFF733
:1020500093F8054606E0FFF78FF8401B022801D9E8
:1020600003204CE79048006800F002000028F2D1FD
:10207000207800F0080008282DD1A069B8B101200F
:102080008B490860FFF778F8054606E0FFF774F81B
:10209000401B022801D9032031E78348406A00F041
:1020A00002000028F2D0012002F03CF913E00020E9
:1020B0007F490860FFF760F8054606E0FFF75CF827
:1020C000401B022801D9032019E77748406A00F035
:1020D00002000028F2D1207800F00400042873D117
:1020E00000267148C06900F0805070B900BF6E488A
:1020F000C06940F080506C49C8610846C06900F072
:102100008050009000BF00BF01266A48006800F4BC
:102110008070B0B96748006840F480706549086015
:10212000FFF72AF8054606E0FFF726F8401B64286B
:1021300001D90320E3E65F48006800F480700028BE
:10214000F2D000BFE068012806D15748006A40F08D
:1021500001005549086227E0E06858B95248006A12
:1021600020F00100504908620846006A20F004008F
:10217000086219E0E06805280BD14B48006A40F07E
:102180000400494908620846006A40F001000862FC
:102190000AE04548006A20F0010043490862084609
:1021A000006A20F00400086200BFE068A0B1FEF7FA
:1021B000E3FF054609E0FEF7DFFF401B41F28831EF
:1021C000884202D903209AE622E03748006A00F0EC
:1021D00002000028EFD012E0FEF7CEFF054608E02F
:1021E000FEF7CAFF401B41F28831884201D9032023
:1021F00085E62D48006A00F002000028F0D1012E8B
:1022000005D12948C06920F080502749C86100BF26
:10221000E069C8B32448406800F00C00082860D08A
:10222000E069022848D1002020490866FEF7A4FF93
:10223000054606E0FEF7A0FF401B022801D9032057
:102240005DE61948006800F000700028F2D1206AAD
:10225000B0F5803F07D11448406820F40030A168F1
:10226000084311494860D4E9080108430E49496808
:1022700021F4741108430C49486001200B49086699
:10228000FEF77AFF054607E02DE0FEF775FF401BDD
:10229000022801D9032032E60348006800F00070EC
:1022A0000028F2D01FE0000000100240000042426F
:1022B000800442420070004000200C490866FEF78E
:1022C0005BFF054606E0FEF757FF401B022801D9D9
:1022D000032014E60648006800F000700028F2D1E0
:1022E00001E001200BE6002009E600000000424268
:1022F0000010024010B504460CB9012010BD0021A9
:10230000A16294F8510010B9204600F037F802207D
:1023100084F851002068006820F0400021680860BF
:10232000D4E901010843E168084321690843616970
:102330000843218B01F400710843E1690843216AD5
:102340000843A16A0843216808600421A06901EAE2
:102350001040616A0843216848602168E06A0861AA
:102360002068C06920F400602168C86100206065B1
:10237000012084F851000020C0E7000010B586B0AD
:10238000044614492068884222D100BF1248C0691F
:1023900040F480401049C8610846C06900F480409C
:1023A000019000BF00BF4FF4204002900220039034
:1023B0000320059002A90948FEF73EFD4FF4804036
:1023C000029000200390049002A90448FEF734FD17
:1023D00006B010BD0038004000100240000C014063
:1023E0002DE9FE4F04460D4616461F46DDF83080A7
:1023F0004FF0000A0020029081464FF0010B01903F
:1024000000BF94F85000012802D10220BDE8FE8FE1
:10241000012084F8500000BFFEF7AEFE814694F81C
:1024200051A060680290BAF1010F0BD00298B0F58C
:10243000827F04D1A06810B9BAF1040F02D0022043
:102440000190D2E00DB106B117B901200190CCE0A6
:1024500094F85100012802D1052084F85100002091
:102460006065A663E787A7872563E786A78620645C
:1024700060642068006800F04000402805D02068B3
:10248000006840F0400021680860E068B0F5006F27
:1024900043D1606810B1E08E012806D128882168F8
:1024A000C860AD1CE08E401EE0862FE0BBF1000F3F
:1024B00010D0E08E70B12068806800F00200022821
:1024C00008D128882168C860AD1CE08E401EE086D7
:1024D0004FF0000BE08F68B12068806800F00100C9
:1024E00040B12068C0683080B61CE08F401EE08795
:1024F0004FF0010B08F1010040B1FEF73DFEA0EBEB
:102500000900404502D3032001906EE0E08E0028D0
:10251000CCD1E08F0028C9D142E0606810B1E08ED4
:10252000012806D12878216808736D1CE08E401EB2
:10253000E0862FE0BBF1000F10D0E08E70B1206874
:10254000806800F00200022808D115F8010B21680C
:102550000873E08E401EE0864FF0000BE08F68B1FC
:102560002068806800F0010040B12068C06806F86B
:10257000010BE08F401EE0874FF0010B08F10100D6
:1025800040B1FEF7F9FDA0EB0900404502D303205E
:1025900001902AE0E08E0028CCD1E08F0028C9D13C
:1025A0004346012202212046CDF8009001F036FF7B
:1025B00010B10320019018E04A464146204601F040
:1025C00005FF20B101200190202060650DE0A0688A
:1025D00050B900BF002000902068C06800902068BB
:1025E0008068009000BF00BF00BF012084F8510048
:1025F00000BF002084F8500000BF019806E70428BF
:1026000008D14FF0E021096941F004014FF0E022C8
:10261000116107E04FF0E021096921F004014FF05A
:10262000E02211617047704770B504462546681E68
:10263000B0F1807F01D301200FE0681E4FF0E02150
:1026400048610F214FF0FF3001F034FC00204FF0C3
:10265000E021886107200861002070BD10B5FFF7F8
:10266000E2FF10BD70477047024600BF92F83C0081
:10267000012801D102207047012082F83C0000BFF0
:10268000022082F83D001068406820F07000136856
:102690005860106840680B681843136858601068E9
:1026A000806820F0800013689860106880684B682C
:1026B000184313689860012082F83D0000BF002095
:1026C00082F83C0000BF00BFD5E710B504460CB946
:1026D000012010BD94F83D0028B9002084F83C008A
:1026E000204600F00DF8022084F83D00211D2068EE
:1026F00002F0FAF8012084F83D000020E9E700002C
:1027000038B504462068B0F1804F0DD100BF1448A1
:10271000C06940F001001249C8610846C06900F074
:102720000100009000BF19E00E492068884215D1D1
:1027300000BF0B48C06940F002000949C861084663
:10274000C06900F00200009000BF00BF00221146E7
:102750001D20FEF7ACFD1D20FEF79CFD38BD0000DE
:10276000001002400004004001460868C06840F0C4
:1027700001000A68D0600868006840F001000A683B
:102780001060002070472DE9F04104460D460026F8
:1027900000BF94F83C00012802D10220BDE8F0817E
:1027A000012084F83C0000BF022084F83D0020682E
:1027B000866826F0770626F47F46206886602868BB
:1027C00050283BD00CDC202860D004DC002853D0FB
:1027D000102865D155E030285DD0402860D141E017
:1027E000602835D070280DD0B0F5805F03D0B0F5EB
:1027F000005F55D115E02068806820F0070021684F
:1028000088604EE0D5E902136A68206802F0A6F8F5
:102810002068866826F0770646F07706206886608E
:102820003FE0D5E902136A68206802F097F8206853
:10283000806840F480402168886032E0EA68696816
:10284000206802F0A1F85021206802F093F828E0F7
:10285000EA686968206802F0ACF86021206802F03C
:1028600089F81EE0EA686968206802F08DF8402166
:10287000206802F07FF814E00021206802F07AF866
:102880000FE01021206802F075F80AE0202120688E
:1028900002F070F805E03021206802F06BF800E0EB
:1028A00000BF00BF012084F83D0000BF002084F875
:1028B0003C0000BF00BF71E7704710B504462068B8
:1028C0000069C0F34000D8B12068C068C0F3400080
:1028D000B0B16FF002002168086101202077206804
:1028E000806900F0030018B12046FFF7E5FF05E01E
:1028F000204600F0ADF8204600F0ABF8002020772D
:1029000020680069C0F38000D8B12068C068C0F3B7
:102910008000B0B16FF004002168086102202077C8
:102920002068806900F4407018B12046FFF7C4FFAA
:1029300005E0204600F08CF8204600F08AF80020E0
:10294000207720680069C0F3C000D8B12068C06853
:10295000C0F3C000B0B16FF0080021680861042026
:1029600020772068C06900F0030018B12046FFF707
:10297000A3FF05E0204600F06BF8204600F069F860
:102980000020207720680069C0F30010D8B12068CB
:10299000C068C0F30010B0B16FF01000216808618A
:1029A000082020772068C06900F4407018B12046E4
:1029B000FFF782FF05E0204600F04AF8204600F0CD
:1029C00048F8002020772068006900F0010058B125
:1029D0002068C06800F0010030B16FF0010021688C
:1029E0000861204600F036F820680069C0F3C01086
:1029F00058B12068C068C0F3C01030B16FF08000DB
:102A0000216808612046FFF72DFE20680069C0F3A9
:102A1000801058B12068C068C0F3801030B16FF0EA
:102A2000400021680861204600F020F82068006915
:102A3000C0F3401058B12068C068C0F3401030B1F6
:102A40006FF02000216808612046FFF70CFE10BDE2
:102A5000704770470349884202D10121024A117030
:102A60007047000020080020680000207047704771
:102A70002DE9F0470446206805682068C66820688C
:102A800047694FF00008C14605F00F08B8F1000F84
:102A90000AD105F0200038B106F0200020B1204610
:102AA00002F002F8BDE8F087B8F1000F6DD007F032
:102AB000010018B906F49070002866D005F00100F6
:102AC00030B106F4807018B1E06B40F00100E063B3
:102AD00005F0040030B107F0010018B1E06B40F0E0
:102AE0000200E06305F0020030B107F0010018B108
:102AF000E06B40F00400E06305F0080030B107F03F
:102B0000010018B1E06B40F00800E063E06B68B3CF
:102B100005F0200028B106F0200010B1204601F099
:102B2000C3FF20684069C0F38019E06B00F0080023
:102B300010B9B9F1000F22D0204601F095FF2068AE
:102B4000406900F04000B0B12068406920F04000CA
:102B500021684861606B50B11748616B4863606BD6
:102B6000FEF732F810B1606B416B88470CE02046ED
:102B7000FFF77DFF08E02046FFF779FF04E02046DD
:102B8000FFF775FF0020E0638CE705F0800030B1AF
:102B900006F0800018B1204602F0BEF882E705F08A
:102BA000400030B106F0400018B1204601F06CFF43
:102BB00078E700BF76E70000554A000810B50446E4
:102BC0000CB9012010BDA06900B100E000BF94F86D
:102BD000390028B9002084F83800204600F028F891
:102BE000242084F839002068C06820F4005021684F
:102BF000C860204601F0ACFF2068006920F49040D6
:102C0000216808612068406920F02A002168486135
:102C10002068C06840F400502168C8600020E0636C
:102C2000202084F8390084F83A000020CAE7000028
:102C300010B586B004462F49206888422AD100BFCB
:102C40002D48806940F480402B498861084680699E
:102C500000F48040019000BF00BF481502900220A0
:102C600003900320059002A92448FEF7E5F84FF4ED
:102C70008060029000200390049002A91F48FEF794
:102C8000DBF8012200212520FEF711FB2520FEF7AD
:102C900001FB2DE01A492068884229D100BF16485F
:102CA000C06940F480201449C8610846C06900F436
:102CB0008020019000BF00BF081502900220039001
:102CC0000320059002A90F48FEF7B6F84FF4006004
:102CD000029000200390049002A90A48FEF7ACF885
:102CE000022200212720FEF7E2FA2720FEF7D2FA7F
:102CF00006B010BD0038014000100240000801403D
:102D000000480040000C014010B5034693F83A001B
:102D100020282FD101B10AB9012010BD00BF93F8BE
:102D20003800012801D10220F7E7012083F838009C
:102D300000BF99629A85DA850020D863222083F843
:102D40003A0000BF002083F8380000BF1868C06850
:102D500040F480701C68E0601868406940F0010031
:102D60001C6860611868C06840F020001C68E06062
:102D70000020D2E70220D0E77047704700BFFEE78F
:102D8000F8B505460C4616460027A0886430A842D0
:102D900003DDA088643085B206E020886438A8424C
:102DA00002DA2088643885B26088A8420DDB40F2E0
:102DB000DC5000906388A088643081B24FF47A724E
:102DC0002846FDF7FFFB07460CE04FF4FA60009041
:102DD0002088643883B2618840F2DC522846FDF7CF
:102DE000F1FB074670883238B84204DC7088323014
:102DF000B84200DB77883846F8BD000010B5B4B0A3
:102E00000024342127A8FDF7B6F934211AA8FDF7CC
:102E1000B2F934210DA8FDF7AEF934216846FDF76B
:102E2000AAF9FE4801F0A2FAFD490978884201D1C9
:102E3000012404E004F072F8012800D10124012CDF
:102E40007ED101221102F748FEF790F901225103C9
:102E5000F548FEF78BF901229103F348FEF786F956
:102E60000122D103F048FEF781F902E03220FDF79C
:102E700003FF04F053F80128F8D000224FF48071CA
:102E8000E848FEF773F96420FDF7F6FE0020ADF880
:102E9000C600ADF89200ADF85E00ADF82A00E34937
:102EA000086029E003F0CEFFBDF8C600E04989883C
:102EB000084480B2ADF8C600BDF89200DC49C9886C
:102EC000084480B2ADF89200BDF85E00D849498848
:102ED000084480B2ADF85E00BDF82A00D4490988E4
:102EE000084480B2ADF82A000520FDF7C5FECF48A2
:102EF0000068401CCD490860CC4800680A28D1DB36
:102F0000BDF8C6000A2190FBF1F080B2ADF8CC000C
:102F1000BDF8920090FBF1F080B2ADF89800BDF8DA
:102F20005E0090FBF1F080B2ADF86400BDF82A00BD
:102F300090FBF1F080B2ADF830000020BB4900E01A
:102F40005DE208603BE0BDF8CC102CA8B74A1268DF
:102F500020F81210BDF898101FA8B44A126820F883
:102F60001210BDF8641012A8B04A126820F81210AE
:102F7000BDF8301005A8AD4A126820F81210BDF84F
:102F8000CC0027A9A94A126821F81200BDF89810B0
:102F90001AA8A64A126820F81210BDF864000DA9FC
:102FA000A24A126821F81200BDF830109F4A126838
:102FB0002DF812109D480068401C9C4908609B48F1
:102FC00000680A28BFDB00224FF480419648FEF7D4
:102FD000CDF800224FF400419348FEF7C7F8FDE01A
:102FE00003F030FF012093490870002092490860E7
:102FF00015E08F4881882CA88F4A126830F812009B
:10300000814207DD8A4881882CA88B4A126820F803
:10301000121008E088480068401C8749086086480C
:1030200000680A28E5DB00BF00208349086015E03E
:103030007F48808827A9804A126831F81210884298
:1030400007DA7B48808827A97B4A126821F812009A
:1030500008E079480068401C7749086076480068B5
:103060000A28E5DB00BF00207349086015E07048BE
:10307000C1881FA8704A126830F81200814207DD2B
:103080006B48C1881FA86C4A126820F8121008E02B
:1030900069480068401C68490860674800680A2859
:1030A000E5DB00BF00206449086015E06048C08887
:1030B0001AA9614A126831F81210884207DA5C488E
:1030C000C0881AA95C4A126821F8120008E05A4820
:1030D0000068401C58490860574800680A28E5DB2A
:1030E00000BF00205449086015E05148418812A8EB
:1030F000514A126830F81200814207DD4C4841887D
:1031000012A84D4A126820F8121008E04A480068D8
:10311000401C49490860484800680A28E5DB00BFB0
:1031200000204549086015E0414840880DA9424A01
:10313000126831F81210884207DA3D4840880DA91C
:103140003D4A126821F8120008E03B480068401C24
:1031500039490860384800680A28E5DB00BF0020CC
:103160003549086015E03248018805A8324A1268DE
:1031700030F81200814207DD2D48018805A82E4A4B
:10318000126820F8121008E02B480068401C2A49F9
:103190000860294800680A28E5DB00BF00202649AE
:1031A000086013E022480088234A12683DF8121094
:1031B000884206DA1E4800881F4A12682DF812005D
:1031C00008E01D480068401C1B4908601A48006858
:1031D0000A28E7DB00BF0520FDF74EFD03F09EFE49
:1031E00000283FF4FDAE012211020E48FDF7BEFF9C
:1031F000012291030C48FDF7B9FF0122D1030A48CF
:10320000FDF7B4FF012251030748FDF7AFFF00228D
:103210004FF480710348FDF7A9FF0FE0080200207A
:103220000A000020000C01400010014010000020A6
:10323000FA01002032000020140000200020ADF828
:10324000C400ADF89000ADF85C00ADF82800ADF812
:10325000C800ADF89400ADF86000ADF82C006949E5
:1032600008605BE0BDF8C40027A9664A126831F81F
:103270001210084480B2ADF8C400BDF890001AA93D
:10328000604A126831F81210084480B2ADF890001C
:10329000BDF85C100DA85B4A126830F812000844B3
:1032A00080B2ADF85C00BDF82810564A12683DF8AF
:1032B0001200084480B2ADF82800BDF8C8102CA850
:1032C000504A126830F81200084480B2ADF8C800C5
:1032D000BDF894101FA84B4A126830F81200084439
:1032E00080B2ADF89400BDF8601012A8454A12688B
:1032F00030F81200084480B2ADF86000BDF82C1020
:1033000005A8404A126830F81200084480B2ADF8AF
:103310002C003C480068401C3A4908603948006865
:103320000A289FDBBDF8C4000A2190FBF1F080B2AF
:10333000ADF8CA00BDF8900090FBF1F080B2ADF896
:103340009600BDF85C0090FBF1F080B2ADF8620031
:10335000BDF8280090FBF1F080B2ADF82E00BDF86A
:10336000C80090FBF1F080B2ADF8CE00BDF894003B
:1033700090FBF1F080B2ADF89A00BDF8600090FBD0
:10338000F1F080B2ADF86600BDF82C0090FBF1F0D2
:1033900080B2ADF83200BDF8CA101B48C180BDF83C
:1033A000CC108180BDF8CE0017494880BDF896103A
:1033B00015488181BDF898104181BDF89A001249E5
:1033C0000881BDF8621010484182BDF86410018286
:1033D000BDF866000C49C881BDF82E100A4801836B
:1033E000BDF83010C182BDF8320007498882084616
:1033F00000F0ACFF04494883084601F051F934B0AD
:1034000010BD0000100000200802002000B58BB0A5
:1034100003F018FD72488088724988807048C0881F
:10342000C8806F48408848806D48008808806C4894
:10343000008908816A484089488169488089888173
:103440008888694A6949FFF79BFC40F6B831081A39
:10345000674908806349C888634A6449891DFFF742
:103460008FFC644908805F4948885F4A5F490C3196
:10347000FFF786FC604908805A4908885A4A5B4928
:103480001231FFF77DFC40F6B831081A5B4908801D
:10349000544909894FF47A7201FB02F0C11700EB1D
:1034A0001151091301F57A71554A118010460088AF
:1034B000B0F57A7F02DC4FF47A7001E05048008862
:1034C0004F49088008460088B0F5FA6F02DB4FF4D8
:1034D000FA6001E04A480088494908804149498921
:1034E0004FF47A7201FB02F0C11700EB115109137E
:1034F00001F57A71434A118010460088B0F57A7F51
:1035000002DC4FF47A7001E03E4800883D490880B3
:1035100008460088B0F5FA6F02DB4FF4FA6001E06C
:1035200038480088374908802E488089B0F5FA6FFE
:1035300001DC012000E00020334908802F4800888A
:1035400000B2324948812C48008800B2888028485F
:10355000008800B208812748008800B2C880284847
:10356000008800B208822748008800B248824AF6E4
:10357000AA20088020212648FDF7ECFD18B901207B
:103580002249488002E000202049488045F25550F9
:103590001E490883AA208DF804001A208DF8050022
:1035A00000208DF8060002208DF8070000208DF81D
:1035B00008008DF809001A220DF10A00FCF7C2FD7F
:1035C00001201449087020221049134803F0EDFB34
:1035D000202201A9114803F0E8FB0BB000BD000058
:1035E000FA01002024020020F47200080A020020E0
:1035F0001C0000201E0000201A00002018000020DF
:10360000200000202200002008000020E00100200F
:10361000000801403100002068040020160300204B
:103620000EB53D483D49086081153C488160002148
:10363000C1600121416181614FF46021C1610020BD
:1036400036494860072135480161FDF77DF818B11A
:103650004E2133A003F046FB012000900190022090
:10366000029069462D48FCF7BBFF18B158212CA0E9
:1036700003F038FB02200090019069462748FCF7D0
:10368000AFFF18B1612126A003F02CFB09200090A8
:103690000320019069462148FCF7A2FF18B16A2176
:1036A0001FA003F01FFB0820009004200190694632
:1036B0001A48FCF795FF18B1732119A003F012FB0B
:1036C000032000900520019069461448FCF788FF0C
:1036D00018B17C2112A003F005FB04200090062005
:1036E00001900020029069460C48FCF779FF18B160
:1036F00086210BA003F0F6FA07200090019002202B
:10370000029069460548FCF76BFF18B1902104A0B0
:1037100003F0E8FA0EBD0000002401405807002025
:103720002E2E2F5372632F6164632E6300000000FE
:1037300000B585B000BF3E48806940F010003C49AC
:1037400088610846806900F01000009000BF00BF4B
:1037500000BF0846806940F0200088610846806903
:1037600000F02000009000BF00BF00BF0846806945
:1037700040F0040088610846806900F00400009071
:1037800000BF00BF00BF0846806940F008008861A4
:103790000846806900F00800009000BF00BF0022CA
:1037A0004FF460412348FDF7E1FC002241F224116F
:1037B0002148FDF7DBFC4FF46040019001200290AE
:1037C000002003900220049001A91A48FDF734FB61
:1037D00048F260000190002002900120039001A9AE
:1037E0001648FDF729FB41F22410019001200290B8
:1037F000002003900220049001A90F48FDF71CFB54
:103800004FF48070019000200290039001A90B48B2
:10381000FDF712FB4FF40070019000200290012090
:10382000039001A90448FDF707FB05B000BD0000A7
:103830000010024000100140000C0140000801404F
:1038400010B50F480F4908604FF48270486000219E
:103850000C488160C160016141614FF40071816178
:103860000021C1610162416281620A21C162FEF7E9
:1038700041FD18B14F2104A003F034FA10BD00003F
:1038800000380040880700202E2E2F5372632F73BC
:1038900070692E630000000000B587B04FF08040D3
:1038A0001649086041F61F404860002113488160B6
:1038B0000921C160002101618161FEF706FF18B195
:1038C0004D210FA003F00EFA4FF48050039003A98E
:1038D0000A48FEF758FF18B1532109A003F002FA75
:1038E00000200190029001A90448FEF7BDFE18B126
:1038F0005A2103A003F0F6F907B000BDE00700204D
:103900002E2E2F5372632F74696D2E6300000000FA
:1039100000B587B017481849086041F61F40486055
:103920000021154881604FF4FA71C16000210161E6
:103930008161FEF7CAFE18B16C2110A003F0D2F924
:103940004FF48050039003A90B48FEF71CFF18B1F9
:1039500072210AA003F0C6F900200190029001A98B
:103960000548FEF781FE18B1792104A003F0BAF9E9
:1039700007B000BD00040040200800202E2E2F5369
:1039800072632F74696D2E630000000010B50C483F
:103990000C4908604FF416404860002109488160D6
:1039A000C16001610C21416100218161C161FFF7AA
:1039B00005F918B14D2104A003F094F910BD0000E1
:1039C00000380140600800202E2E2F5372632F759F
:1039D000736172742E63000010B50C480C490860C6
:1039E0004FF4E1304860002109488160C160016105
:1039F0000C21416100218161C161FFF7DFF818B13D
:103A0000602104A003F06EF910BD000000480040E2
:103A1000A00800202E2E2F5372632F7573617274CD
:103A20002E63000010B500220749084801F0DFFDB1
:103A30000749064802F0E4F80649044801F012FB81
:103A4000024802F0A5F910BD6C000020E00800203B
:103A5000DC000020A000002000BFFEE7704700004F
:103A60001FB510A103C9CDE90201052202A930202A
:103A700000F094F805226946102000F027F8002491
:103A800006E01DF80400A52800D003E0601CC4B2C5
:103A9000052CF6DB00BF052C02D0012004B010BDC0
:103AA0000020FBE7A5A5A5A5A50000000648006825
:103AB00040F0200004490860081F006840F480506E
:103AC000091F086070470000140C01402DE9F04107
:103AD00007460D4616460F48006840F480500D49D1
:103AE0000860384600F086FC8046002405E0FF2090
:103AF00000F080FC2855601CC4B2B442F7DB0548D6
:103B0000001F006840F480500249091F08604046C9
:103B1000BDE8F081140C014070B504460B48006804
:103B200040F4805009490860204600F063FCFF2003
:103B300000F060FC05460548001F006840F4805016
:103B40000249091F0860284670BD0000140C01409E
:103B500070B504460720FFF7DFFF054629462720FA
:103B600000F042F805F0400050B1202221466120CB
:103B7000FFF7ACFFFF21E22000F036F8002070BD17
:103B80000120FCE710B5044620222146024803F03C
:103B90000CF9002010BD0000680400202DE9F04160
:103BA00007460C4615460F48006840F480500D4902
:103BB0000860384600F01EFC8046002605E014F838
:103BC000010B00F017FC701CC6B2AE42F7DB0548D3
:103BD000001F006840F480500249091F08604046F9
:103BE000BDE8F081140C014070B505460C460B4849
:103BF000006840F4805009490860284600F0FAFB4C
:103C00000646204600F0F6FB0448001F006840F41A
:103C100080500249091F0860304670BD140C0140F5
:103C200010B50446FFF742FF00BFFFF719FF012858
:103C3000FBD04548006840F0200043490860052259
:103C4000611C3020FFF7AAFF0522A11D2A20FFF7E3
:103C5000A5FF01212120FFF7C7FF01212220FFF747
:103C6000C3FF1A212420FFF7BFFFE17A2520FFF7C9
:103C7000BBFF0F212620FFF7B7FF207830B10128C6
:103C80000DD0022814D0032848D12CE02021312067
:103C9000FFF7AAFF0F212020FFF7A6FF3FE020211A
:103CA0003120FFF7A1FF0E212020FFF79DFF36E016
:103CB000FF21E120FFF798FFFF21E220FFF794FFAB
:103CC0000F212020FFF790FF502000F093FB73207E
:103CD00000F090FB01213C20FFF786FF06213D20EC
:103CE000FFF782FF1BE00E212020FFF77DFFFF2161
:103CF000E120FFF779FFFF21E220FFF775FF502059
:103D000000F078FB732000F075FB01213C20FFF7E9
:103D10006BFF06213D20FFF767FF00E000BF00BFFB
:103D20000948001F006840F020000749091F08608B
:103D30000648606206482062064860610648A06145
:103D40000648E06110BD0000140C0140513B000822
:103D5000853B0008456B0008AD6B0008E96A000868
:103D600030B589B00720FFF7D7FE04466A4601A99F
:103D7000224802F0EFFFB8B121480078012804D0B2
:103D8000022809D003280DD100E000BF9DF80010E3
:103D900001A800F025FE06E09DF8001001A800F043
:103DA0003FFE00E000BF00BF04F04000B0B1612062
:103DB000FFF7B2FE0546212D0BDA202211496120C2
:103DC000FFF784FE0F484078C11D0E48FCF7DEFA6D
:103DD00003E0FF21E220FFF707FF00BF04F010001F
:103DE00030B104F0010018B1FF21E120FFF7FCFE23
:103DF00021462720FFF7F8FE09B030BD68040020F7
:103E000030070020100700201CB51FA103C9CDE911
:103E100000011F481F490860052269461E48FCF73B
:103E2000B5F9B8B9052269461B48401DFCF7AEF943
:103E300080B9174819490A68C0F8062009798172C3
:103E400017490A68C0F80120097941711420104906
:103E5000C87212E01048801E00780D49C8720846EA
:103E60000D490A68C0F80620097981720A49491D7E
:103E70000A68C0F8012009794171032004490870DB
:103E80000846FFF7CDFE1CBDFFFFFFFFFF0000004F
:103E9000300700206404002002F0010858000020D0
:103EA0005D00002002480068C0F302207047000057
:103EB0000CED00E010B5002807DA0A07140E054AD9
:103EC00000F00F031B1FD45403E00A07130E024A2D
:103ED000135410BD18ED00E000E400E02DE9FC41B2
:103EE00005460024002700260020019000900CE2E7
:103EF000BDF8040000F00F06002E7DD1BDF80400CF
:103F000000F0100088BB2868008848F60F71084050
:103F10002968088005F128042868B0F85010207836
:103F200001EBC000801C296801F5806131F81000A8
:103F3000C0F30900E061E169606908446061002143
:103F40002846FDF727FA95F824000028CFD0A0696D
:103F50000028CCD195F8240040F080002968A1F811
:103F60004C00002085F82400CFE1FFE705F50A7436
:103F7000286800880090BDF8000000F4006018B3C5
:103F80002868B0F85010207801EBC000801D296827
:103F900001F5806131F81000C0F30900E061A18BE8
:103FA0008BB2A28805F22C41286802F05EFD2868D9
:103FB0000088C0F30E0048F68F7108402968088019
:103FC0002846FDF7D1FCA0E1BDF8000000F4004058
:103FD00000288CD028680088C0F30E0048F68F7146
:103FE0000840296808802868B0F85010207801EB54
:103FF000C000801D296800E055E001F5806131F8BE
:104000001000C0F30900E061E06960B1B4F81CC0C1
:104010001FFA8CF3A2886169286802F026FDE16925
:1040200060690844606100212846FDF7C1F92A68EB
:1040300002F580622868B0F85000801D02EB400154
:1040400022693E2A10D92269C2F34F10227C02F065
:104050001F020AB9421E90B24FF6FF7202EA802296
:1040600042F400420A600DE02269C2F34F00227C54
:1040700002F001020AB1421C90B24FF6FF7202EA4E
:1040800080220A60296809884BF68F7201EA0200D3
:1040900080F4805080F4005040F4004141F08001F1
:1040A0002A68118031E17100286830F81100009011
:1040B000BDF8000000F4004000287CD071002868A2
:1040C00030F81100C0F30E0048F68F7108407200FE
:1040D000296821F8120005F50A7000EB4614A07A51
:1040E000A8B92868B0F85010207801EBC000801DF6
:1040F000296801F5806131F81000C0F30907EFB3BA
:10410000A28861693B46286802F0AFFC44E0217850
:104110004900286830F8110000F48040A8B12868F0
:10412000B0F85010207801EBC000801C296801F520
:10413000806131F81000C0F30907DFB1E2886169DE
:104140003B46286802F091FC14E02868B0F8501053
:10415000207801EBC000801D296801F5806131F8ED
:104160001000C0F309072FB1228961693B46286816
:1041700002F07BFC21784900286800E00CE030F870
:10418000110048F68F71084048F2C00108432278B8
:104190005200296821F81200E0693844E061606942
:1041A00038446061A06910B12069B84204D921780F
:1041B0002846FDF7FDF805E021782846D4E90523D7
:1041C000FDF7ACF9BDF8000000F0800000287CD0BD
:1041D00005F1280000EB46147100286830F8110042
:1041E00048F60F7108407200296821F81200A07A81
:1041F000D0B92868B0F85010207801EBC000801CBE
:10420000296801F5806131F81000C0F30900E06110
:10421000E069E8B3B4F81CC01FFA8CF3A2886169A6
:10422000286802F040FC4EE021784900286830F808
:10423000110000F04000D0B12868B0F8501020788C
:1042400001EBC000801C296801F5806131F8100085
:10425000C0F30900E061E06928B3B4F81CC01FFA9C
:104260008CF3E2886169286802F01DFC1BE0286875
:10427000B0F85010207801EBC000801D296801F5CE
:10428000806131F81000C0F30900E061E06900E0EE
:1042900019E040B1B4F81CC01FFA8CF3228961699F
:1042A000286802F000FC21784900286830F81100E5
:1042B00048F68F7108404CF2800108432278520082
:1042C000296821F81200286800E01EE0B0F85010BC
:1042D000207801EBC000801C296801F5806131F86D
:1042E0001000C0F30900E061E169606908446061A1
:1042F000A06920B921782846FDF74CF805E021781F
:104300002846D4E90523FDF767F92868B0F844008A
:10431000019000F4004000287FF4EAADBDE8FC8184
:104320007047000008B508490968C9084FF47A7257
:10433000B1FBF2F14143009100BF00BF00994A1E5A
:1043400000920029F9D108BDC400002010B5014633
:104350000022002000230B461878012203E09C5C19
:104360006040541CE2B21A2AF9D310BD70B505465C
:10437000154C20884AF6AA21884223D12046FFF70F
:10438000E5FF618B88421DD1208828806088688085
:10439000A188A980E188E9802089288161896981D3
:1043A000A189A981E089E881218A2982618A6982BB
:1043B000A08AA882E18AE982218B2983608B6883A5
:1043C000012070BD0020FCE700FC0108F8B50446A0
:1043D0000D4616462B46002280212046009600F00E
:1043E0001DF828B1606D40F0200060650320F8BD25
:1043F0000020FCE711B583B01420012302AA03A911
:1044000000900548FDF7ECFF04461CB99DF8080034
:1044100004B010BD0120FBE7880700202DE9F04122
:1044200004460E4617461D46DDF818803FE0681C1E
:10443000E0B32DB1FCF7A0FEA0EB0800A84236D3F4
:104440002068406820F0E000216848606068B0F5AE
:10445000827F0DD1A068B0F5004F03D0A068B0F501
:10446000806F05D12068006820F040002168086056
:10447000A06AB0F5005F0ED100BF206800684DF65D
:10448000FF710840216808602068006840F400500F
:104490002168086000BF012084F8510000BF00209F
:1044A00084F8500000BF0320BDE8F081FFE72068DA
:1044B00080683040B04201D1012000E00020B842C5
:1044C000B5D10020F0E7704710B53B4800780128CF
:1044D0001DD120213948FCF73DFE39490978884231
:1044E00015D02820FCF7C8FB002033490870202194
:1044F0003248FCF72FFE32490978884259D02021F2
:104500002E48FCF727FE2E490870012010BD4021DF
:104510002A48FCF71FFE2B490978884207D0402122
:104520002648FCF717FE274908700520EEE74FF4F0
:1045300000712548FCF70EFE24490978884208D00E
:104540004FF400712048FCF705FE20490870032055
:10455000DCE74FF480711948FCF7FCFD1C49097831
:10456000884208D04FF480711448FCF7F3FD1849D5
:1045700008700420CAE704211348FCF7EBFD154935
:104580000978884207D004210F48FCF7E3FD114960
:1045900008700520BAE720210848FCF7DBFD012858
:1045A00007D140210548FCF7D5FD012801D102497A
:1045B00008700020AAE700002D000020000801403C
:1045C0002B0000202C000020000C014028000020BF
:1045D000290000202A00002070B5002400250026B4
:1045E000FFF772FF0446002C3DD0062C3AD2DFE8DC
:1045F00004F039030E0F1D2B21480078012801D14A
:10460000002503E0012501201E4908702AE029E069
:104610001D480078012804D14FF47A701B490880A6
:1046200003E04FF4FA60194908801BE0184800784D
:10463000012804D140F2DC501649088003E04FF411
:10464000FA60144908800DE013480078012804D16D
:1046500040F2DC500F49088003E04FF47A700D49B6
:10466000088000BF00BF0D48C582868207480088C9
:1046700000B20A4988810748008800B2C88170BD2D
:104680002B00002001000020280000202400002032
:1046900029000020260000202C000020E00100203E
:1046A0002DE9F04104460027B8464AF6AA202649DB
:1046B000088060884880A18823488180E188C18083
:1046C00020892149088161891F484181A18981810F
:1046D000E0891D49C881218A1B480182618A418283
:1046E000A08A19498882E18A1748C182218B0183F7
:1046F000608B15494883FCF789FB10B10020BDE8A9
:10470000F081FBF713FF08B90020F8E70727DFF86F
:10471000388000250EE058F825600C4800EB850134
:10472000324600230220FCF719FB08B10020E6E71F
:10473000681C85B2BD42EEDBFCF706FB08B1002029
:10474000DDE70120DBE700003202002000FC010869
:1047500010B502F0EFFB02F0D7FA0B480068B0F595
:104760007A7F07D100200849086008480088401C6B
:104770000649088004480068401C03490860FCF7AB
:1047800001FDFDF76BFF10BDB8000020B400002054
:1047900010B594B001200A9000040B9000200C90FA
:1047A00001200E9002201190C10312914FF4E011EC
:1047B00013910AA8FDF77EFB18B1C4211CA002F0DA
:1047C00091FA0F20059002200690002007904FF4E8
:1047D0008060089000200990022105A8FDF726FAC4
:1047E00018B1D22112A002F07DFA122001904FF4EC
:1047F000004003900020049001A8FDF77FF918B154
:10480000DA210BA002F06EFAFDF7E2FA4FF47A71AA
:10481000B0FBF1F42046FDF707FF0420FDF7EFFEA3
:1048200000221146501EFCF742FD14B010BD0000DE
:104830002E2E2F5372632F6D61696E2E6300000060
:104840001148006840F001000F49086008464068C0
:104850000E4908400C494860084600680C49084069
:10486000094908600846006820F48020086008466E
:10487000406820F4FE0048604FF41F008860C803C1
:104880000449086070470000001002400000FFF873
:10489000FFFFF6FE08ED00E010B50C48006840424E
:1048A0000A4908604FF08040006920F001004FF095
:1048B000804108610846006820F00100086000207F
:1048C000C862034803490968884710BDC00000203A
:1048D000E00100204C00002010B50248FDF7EDFF7C
:1048E00010BD00002008002000220268184B9842EA
:1048F00008D0B0F1804F05D0164B984202D0164B2D
:10490000984203D122F070024B681A43104B984230
:1049100008D0B0F1804F05D00E4B984202D00E4B1C
:10492000984203D122F44072CB681A4322F08002ED
:104930004B691A4302608B68C3620B688362044B45
:10494000984201D10B690363012343617047000062
:10495000002C0140000400400008004030B50C4627
:104960000021816821F47F4142EA03252543294340
:10497000816030BD0A460021816821F0700142F05B
:10498000070319438160704730B50B461446002178
:104990000022026A056A25F001050562816921F09D
:1049A000F00141EA041122F00A021A438161026215
:1049B00030BD30B50B46144600210022056A25F0B3
:1049C000100505628169026A21F4704141EA0431EF
:1049D00022F0A00242EA03128161026230BD0000AF
:1049E00070B504460D460C48006840F020000A49A6
:1049F0000860052209492A20FFF7D0F82A462146F7
:104A0000A020FFF7CBF80448001F006840F020000A
:104A10000149091F086070BD140C014031070020D6
:104A200070B504460D460A48006840F02000084969
:104A300008602A462146A820FFF7B0F80448001F66
:104A4000006840F020000249091F086070BD0000A6
:104A5000140C014070B505466C6A0020E085E084C6
:104A60002046FEF704F870BD0168C96821F4907112
:104A70000268D1600168496921F001010268516151
:104A8000202180F83A10704710B504462068C068AD
:104A900020F040002168C860202084F839002046BA
:104AA000FEF76BF9002010BD70B5044694F83A008B
:104AB00022284AD1A068B0F5805F13D1A56A206989
:104AC00040B920684068C0F308002880A06A801CB4
:104AD000A06219E020684068C0B22880A06A401C2B
:104AE000A06211E0206938B920684068C1B2A26AAA
:104AF000501CA062117007E02068406800F07F0140
:104B0000A26A501CA0621170E08D401E80B2E08548
:104B1000C8B92068C06820F020002168C8602068FB
:104B2000C06820F480702168C8602068406920F067
:104B3000010021684861202084F83A002046FEF7F1
:104B40001BF9002070BD0020FCE70220FAE70000FE
:104B50002DE9F041044600252068006920F440500A
:104B6000E1680843216808612169A0680843616918
:104B7000084305432068C06841F20C61884328431C
:104B80002168C8602068406920F44070A16908432A
:104B9000216848615F49206888425CD1FDF72EF9A1
:104BA00000EBC00101EB001061688900B0FBF1F679
:104BB000FDF724F900EBC00101EB001061688900EA
:104BC000B0FBF1F06421B0FBF1F000EBC00101EBB0
:104BD0000010A6EB8000322101EB00106421B0FB35
:104BE000F1F000F0F006FDF709F900EBC00101EB70
:104BF000001061688900B0FBF1F06421B0FBF1F0B6
:104C000006EB0016FDF7FAF800EBC00101EB00100F
:104C100061688900B0FBF1F7FDF7F0F800EBC00127
:104C200001EB001061688900B0FBF1F06421B0FB7A
:104C3000F1F000EBC00101EB0010A7EB8000322186
:104C400001EB00106421B0FBF1F000F00F003044E4
:104C5000216888605BE0FDF7C1F800EBC00101EB63
:104C6000001061688900B0FBF1F6FDF7B7F800EBC2
:104C7000C00101EB001061688900B0FBF1F0642114
:104C8000B0FBF1F000EBC00101EB0010A6EB8000DF
:104C9000322101EB00106421B0FBF1F000F0F006CE
:104CA000FDF79CF800EBC00101EB00106168890082
:104CB000B0FBF1F06421B0FBF1F006EB0016FDF75C
:104CC0008DF800EBC00101EB001061688900B0FBBA
:104CD000F1F7FDF783F800EBC00101EB001061680C
:104CE0008900B0FBF1F06421B0FBF1F000EBC001F2
:104CF00001EB0010A7EB8000322101EB00106421D2
:104D0000B0FBF1F000F00F00304421688860BDE88E
:104D1000F081000000380140014691F83900212857
:104D20002CD18868B0F5805F0FD10A6A1088C0F373
:104D300008000B685860086918B9086A801C086286
:104D400009E0086A401C086205E00B6A581C08620A
:104D500018780B685860C88C401E80B2C88458B957
:104D60000868C06820F080000B68D8600868C068D8
:104D700040F040000B68D860002070470220FCE73C
:104D800010B50248FDF774FE10BD00006008002059
:104D900070B500243848FDF76BFE3748C08DA0423F
:104DA00061D03549CC8D35490968491C334A1160B9
:104DB000334811460968491E21B103290FD004293F
:104DC00026D118E02E4A1278AA2A07D000222B4BAF
:104DD0001A606422284BDA85294A9A6241E0284AFF
:104DE000D2783AB10022254B1A606422224BDA8530
:104DF000234A9A6235E0224A1279022A07D0002219
:104E00001E4B1A6064221C4BDA851D4A9A6228E008
:104E10000021002203E01A4B9B5C1944521CB0F89D
:104E200001309B1D9342F6DCC278CAB90279022A8E
:104E300016D1CBB2B0F80120921D114DAA5C93425D
:104E40000ED1B0F80120D21D0C4B1B689A4207D13D
:104E500000220A4B1A606422074BDA852A469A62BE
:104E600000BF00BF07E00020044908606420024939
:104E7000C8850348886270BDA0080020BC000020DF
:104E8000541B002002460B46D2F81812D2F8180222
:104E900018B10020C1F8140270470220FCE770B579
:104EA00004460E46D4F818523146204600F0ACFCB9
:104EB000C5F80C02D4F8180248B1D5F80402D4F8A9
:104EC0001C12CA6805F503719047002070BD0220CE
:104ED000FCE770B504460E4600258121204600F00F
:104EE000C1FB0121204600F0BDFB8221204600F0DD
:104EF000B9FBD4F8180250B1D4F81C1248688047A6
:104F0000D4F8180201F054F80020C4F8180228461A
:104F100070BD70B50546D5F81842D5F81C0278B1B9
:104F200094F80002FF280BD094F8012294F80002B4
:104F3000D5F81C128B6821469847FF2084F80002A0
:104F4000002070BD01460A2008800148704700001B
:104F5000D00000200146432008800148704700002F
:104F60005801002001464320088001487047000096
:104F700014010020014643200880014870470000CA
:104F80009C0100202DE9F04104460F460026207CBC
:104F900070B94FF4007302228121204600F0A8FC72
:104FA0004FF4007302220121204600F0A1FC0BE027
:104FB000402302228121204600F09AFC4023022255
:104FC0000121204600F094FC082303228221204680
:104FD00000F08EFC4FF4077000F0ECFFC4F81802EC
:104FE000D4F8180208B901261CE0D4F81852D4F8F5
:104FF0001C12086880470020C5F81402C5F8180282
:10500000207C40B94FF4007301212046D5F80422DA
:1050100000F09FFC06E0402301212046D5F8042241
:1050200000F097FC3046BDE8F08170B50446D4F836
:105030001852D4F8180298B1207C40B94FF400738C
:1050400001212046D5F8042200F083FC06E040232D
:1050500001212046D5F8042200F07BFC002070BD21
:105060000220FCE70246022011B1C2F81C12002007
:1050700070470246D2F81832C3F804120020704775
:1050800010B50346D3F81842C4F80812C4F8102229
:10509000002010BD70B505460C46D5F81862207882
:1050A00000F0600040B3202835D1E088E0B12078DE
:1050B00000F0800060B1E2886078D5F81C128B683F
:1050C00031469847E2883146284600F0B9F812E0A8
:1050D000607886F80002A07986F80102E2883146FD
:1050E000284600F08CF806E06078D5F81C12002203
:1050F0008B68214698470FE060780A2802D00B2879
:1051000007D105E001220649284600F099F800E0A1
:1051100000BF00BF00BF00BF00BF002070BD000087
:10512000DF01002070B50546D5F81842D5F8180201
:1051300090B1D4F8140268B90120C4F81402B4F88C
:10514000100283B281212846D4F8082200F013FD12
:10515000002070BD0120FCE70220FAE770B504468C
:105160000D46D4F814022946426820469047002094
:1051700070BD70B504460D4694F8FC01022802D0BB
:10518000032811D100E000BF688801280BD100205E
:10519000C4F80402D4F814022946826820469047D5
:1051A000204600F05EF804E02946204600F01BF897
:1051B00000BF00BF70BD70B506460C4615462B46B5
:1051C00022460021304600F0C4FB002070BD70B5BF
:1051D00006460C4615462B4622460021304600F076
:1051E000CAFC002070BD70B504460D4680212046E3
:1051F00000F077FC0021204600F073FC70BD70B514
:1052000004460E4615460320C4F8F4014FF484709A
:105210000551001D05512B4632460021204600F065
:1052200098FB002070BD10B504460520C4F8F401B9
:1052300000231A461946204600F08BFB002010BDC3
:1052400070B504460E4615460220C4F8F401A56167
:10525000E5612B4632460021204600F08CFC002000
:1052600070BD10B504460420C4F8F40100231A46AA
:105270001946204600F07FFC002010BD70B50546A1
:105280000C462DB92246064906A000F087F904E035
:105290002246034903A000F081F9014870BD0000D7
:1052A0008411002043444320436F6E666967000009
:1052B0000246122008800148704700008800002044
:1052C00070B505460C462DB92246064906A000F0E9
:1052D00065F904E02246034903A000F05FF90148A4
:1052E00070BD00008411002043444320496E746562
:1052F0007266616365000000024604200880014870
:10530000704700009C00002070B505460C46224600
:10531000024903A000F042F9004870BD841100204A
:1053200053544D6963726F656C656374726F6E6917
:105330006373000070B505460C462DB92246064938
:1053400006A000F02BF904E02246034903A000F078
:1053500025F9014870BD00008411002053544D33DD
:1053600032205669727475616C20436F6D506F7294
:105370007400000070B505460C462DB9224606495A
:1053800006A000F00BF904E02246034903A000F058
:1053900005F9014870BD0000841100203030303024
:1053A00030303030303031410000000070B50446FC
:1053B0000D46E888012804D029462046FFF713FF50
:1053C0001BE094F8FC01022802D003280FD108E06A
:1053D0000020A060012204F108012046FFF730FF01
:1053E0000AE00122211D2046FFF72AFF04E029469A
:1053F0002046FFF7F8FE00BF00BF70BDF8B50446B9
:105400000E467088001208287FD2DFE800F07E0484
:105410000C207E7E5F6D207CD4F810120A686946ED
:105420009047054676E0207C40B9D4F81402816AA2
:105430006846884705460221697007E0D4F81402DF
:10544000C16A6846884705460221697062E0B07803
:10545000062834D2DFE800F0030B131B232B207C3B
:10546000D4F810124A686946904705462CE0207C23
:10547000D4F810128A6869469047054624E0207CDB
:10548000D4F81012CA686946904705461CE0207C93
:10549000D4F810120A6969469047054614E0207C4A
:1054A000D4F810124A696946904705460CE0207C02
:1054B000D4F810128A6969469047054604E03146DF
:1054C0002046FFF790FEF8BD00BF23E0207C30B9F6
:1054D000D4F81402416B6846884705461AE0314605
:1054E0002046FFF780FEEEE7207C48B9D4F814028E
:1054F000016B684688470546072169700AE004E0A9
:1055000031462046FFF76FFEDDE731462046FFF7C4
:105510006AFED8E700BFBDF8000088B1F08878B116
:10552000F088BDF80010884202DDBDF8000000E000
:10553000F0880090BDF8002029462046FFF780FE45
:1055400000BFC0E70146002002E0421CD0B2491C67
:105550000A78002AF9D1704770B504460D4694F8D0
:10556000FC01022802D0032811D100E000BF012075
:10557000E060D4F8040218B1E06840F00200E06096
:10558000022204F10C012046FFF75AFE04E02946EE
:105590002046FFF728FE00BF00BF70BD2DE9F04197
:1055A00004460D4617460026FCB12046FFF7CAFF09
:1055B000022101EB400038803A783046711CCEB2AF
:1055C0002A5403223046711CCEB22A540AE014F841
:1055D000012B3046711CCEB22A5400223046711C79
:1055E000CEB22A5420780028F1D1BDE8F08170B500
:1055F00004460D4616460CB9022070BDD4F81402BC
:1056000010B10020C4F814020DB1C4F810520120EA
:1056100084F8FC012670204600F000F90020ECE739
:105620002DE9F04104460D46002600272946D4F80E
:105630002002FBF7FDFE064636B1012E06D0022EF3
:1056400006D0032E08D105E0002707E0022705E079
:10565000012703E0022701E0022700BF00BF384610
:10566000BDE8F0812DE9F04104460D4600260027F3
:105670002946D4F82002FBF7A9FE064636B1012ED2
:1056800006D0022E06D0032E08D105E0002707E041
:10569000022705E0012703E0022701E0022700BFFF
:1056A00000BF3846BDE8F0812DE9F04104460E46C2
:1056B0001746002E54D104F11405D4F8F401022841
:1056C00043D1D5E90201884210D9D5E90201401A37
:1056D000A860288982B239462046FFF778FD00236A
:1056E0001A461946204600F034F92EE0E968686849
:1056F000B0FBF1F201FB1200B8B9E96868688842B2
:1057000013D36868D4F8F81188420ED200221146EB
:105710002046FFF75CFD0020C4F8F80100231A467C
:105720001946204600F015F90FE0D4F81402C068BD
:1057300040B194F8FC01032804D1D4F81402C168E4
:10574000204688472046FFF76EFD94F800020128A6
:1057500014D1204600F05CFA002084F800020DE02D
:10576000D4F81402406948B194F8FC01032805D12B
:10577000D4F8140231464269204690470020BDE823
:10578000F0812DE9F04105460E4617465EBB05F552
:105790008274D5F8F401032833D1D4E90201884298
:1057A00010D9D4E90201401AA060D4E9020188426C
:1057B00001D2A06800E0E06882B239462846FFF7CF
:1057C000FAFC1EE0D5F81402006940B195F8FC011E
:1057D000032804D1D5F814020169284688472846D1
:1057E000FFF73FFD0DE0D5F81402806948B195F848
:1057F000FC01032805D1D5F81402314682692846F8
:1058000090470020BDE8F08170B504460D4629465A
:10581000D4F82002FBF73DFE70BD000010B5044631
:105820002048C0F85C44C4F820021F481D490860A5
:105830000820486002211B4881600321C1600021CB
:105840008161C1610162FBF7A1FF20B14FF4977143
:1058500016A001F047FA04F5087418230022114637
:105860002068FBF777FD5823002280212068FBF792
:1058700071FDC023002281212068FBF76BFD4FF4EE
:105880008873002201212068FBF764FD2068A4F5DD
:1058900008744FF4807300228221FBF75BFD002027
:1058A00010BD0000040B0020005C00402E2E2F5382
:1058B00072632F757362645F636F6E662E630000A0
:1058C00010B50246D2F8203201F08000802807D1BE
:1058D00001F07F0403F1280000EB4410807810BD34
:1058E00001F07F0403F50A7000EB44108078F6E7BE
:1058F0002DE9F04704460F4615461E464FF00008B6
:10590000C1462B4632463946D4F82002FBF7CBFD80
:105910008046B8F1000F09D0B8F1010F09D0B8F1F5
:10592000020F09D0B8F1030F0CD108E04FF00009C5
:105930000BE04FF0020908E04FF0010905E04FF0DD
:10594000020902E04FF0020900BF00BF4846BDE86F
:10595000F0872DE9F04704460D4616461F464FF0E6
:105960000008C1463B4632462946D4F82002FBF7E0
:10597000D5FD8046B8F1000F09D0B8F1010F09D06C
:10598000B8F1020F09D0B8F1030F0CD108E04FF0C5
:1059900000090BE04FF0020908E04FF0010905E0B3
:1059A0004FF0020902E04FF0020900BF00BF484675
:1059B000BDE8F08710B5044640230022114620467A
:1059C000FFF796FF40214FF48870015140230022D9
:1059D00080212046FFF78CFF40212162012084F8BE
:1059E000FC01D4F8180228B12179D4F814024268D5
:1059F00020469047002010BD014691F8FD0181F836
:105A0000FC010020704710B5044694F8FC010328FF
:105A100008D1D4F81402C06920B1D4F81402C169C5
:105A200020468847002010BD0246117400207047B0
:105A30002DE9F04104460D46002600272946D4F8FA
:105A40002002FBF776FF064636B1012E06D0022E65
:105A500006D0032E08D105E0002707E0022705E065
:105A6000012703E0022701E0022700BF00BF3846FC
:105A7000BDE8F08170B504460D46294604F5027074
:105A800000F0AAF80120C4F8F40140F20E20005BF7
:105A9000C4F8F80194F8080200F01F0020B10128B2
:105AA00008D0022812D10BE004F50271204600F064
:105AB00076F913E004F50271204600F054FA0DE087
:105AC00004F50271204600F0A3F907E094F80802FB
:105AD00000F08001204600F004F800BF00BF002065
